{
	".git/Contracts/ControlStructures.sol": {
		"CONTROLSTRUCTURE": {
			"abi": [
				{
					"inputs": [
						{
							"internalType": "uint256",
							"name": "time",
							"type": "uint256"
						}
					],
					"name": "AfterHours",
					"type": "error"
				},
				{
					"inputs": [
						{
							"internalType": "uint256",
							"name": "_time",
							"type": "uint256"
						}
					],
					"name": "doNotdisturb",
					"outputs": [
						{
							"internalType": "string",
							"name": "",
							"type": "string"
						}
					],
					"stateMutability": "pure",
					"type": "function"
				},
				{
					"inputs": [
						{
							"internalType": "uint256",
							"name": "_number",
							"type": "uint256"
						}
					],
					"name": "fizzbuzz",
					"outputs": [
						{
							"internalType": "string",
							"name": "",
							"type": "string"
						}
					],
					"stateMutability": "pure",
					"type": "function"
				}
			],
			"devdoc": {
				"kind": "dev",
				"methods": {},
				"version": 1
			},
			"evm": {
				"assembly": "    /* \".git/Contracts/ControlStructures.sol\":60:1686  contract CONTROLSTRUCTURE {... */\n  mstore(0x40, 0x80)\n  callvalue\n  dup1\n  iszero\n  tag_1\n  jumpi\n  revert(0x00, 0x00)\ntag_1:\n  pop\n  dataSize(sub_0)\n  dup1\n  dataOffset(sub_0)\n  0x00\n  codecopy\n  0x00\n  return\nstop\n\nsub_0: assembly {\n        /* \".git/Contracts/ControlStructures.sol\":60:1686  contract CONTROLSTRUCTURE {... */\n      mstore(0x40, 0x80)\n      callvalue\n      dup1\n      iszero\n      tag_1\n      jumpi\n      revert(0x00, 0x00)\n    tag_1:\n      pop\n      jumpi(tag_2, lt(calldatasize, 0x04))\n      shr(0xe0, calldataload(0x00))\n      dup1\n      0x06c3c519\n      eq\n      tag_3\n      jumpi\n      dup1\n      0x65cae827\n      eq\n      tag_4\n      jumpi\n    tag_2:\n      revert(0x00, 0x00)\n        /* \".git/Contracts/ControlStructures.sol\":225:692  function fizzbuzz(uint256 _number) public pure returns (string memory) {... */\n    tag_3:\n      tag_5\n      0x04\n      dup1\n      calldatasize\n      sub\n      dup2\n      add\n      swap1\n      tag_6\n      swap2\n      swap1\n      tag_7\n      jump\t// in\n    tag_6:\n      tag_8\n      jump\t// in\n    tag_5:\n      mload(0x40)\n      tag_9\n      swap2\n      swap1\n      tag_10\n      jump\t// in\n    tag_9:\n      mload(0x40)\n      dup1\n      swap2\n      sub\n      swap1\n      return\n        /* \".git/Contracts/ControlStructures.sol\":749:1683  function doNotdisturb(uint256 _time) public pure returns (string memory) {... */\n    tag_4:\n      tag_11\n      0x04\n      dup1\n      calldatasize\n      sub\n      dup2\n      add\n      swap1\n      tag_12\n      swap2\n      swap1\n      tag_7\n      jump\t// in\n    tag_12:\n      tag_13\n      jump\t// in\n    tag_11:\n      mload(0x40)\n      tag_14\n      swap2\n      swap1\n      tag_10\n      jump\t// in\n    tag_14:\n      mload(0x40)\n      dup1\n      swap2\n      sub\n      swap1\n      return\n        /* \".git/Contracts/ControlStructures.sol\":225:692  function fizzbuzz(uint256 _number) public pure returns (string memory) {... */\n    tag_8:\n        /* \".git/Contracts/ControlStructures.sol\":281:294  string memory */\n      0x60\n        /* \".git/Contracts/ControlStructures.sol\":376:377  0 */\n      0x00\n        /* \".git/Contracts/ControlStructures.sol\":371:372  3 */\n      0x03\n        /* \".git/Contracts/ControlStructures.sol\":361:368  _number */\n      dup4\n        /* \".git/Contracts/ControlStructures.sol\":361:372  _number % 3 */\n      tag_16\n      swap2\n      swap1\n      tag_17\n      jump\t// in\n    tag_16:\n        /* \".git/Contracts/ControlStructures.sol\":361:377  _number % 3 == 0 */\n      eq\n        /* \".git/Contracts/ControlStructures.sol\":361:397  _number % 3 == 0 && _number % 5 == 0 */\n      dup1\n      iszero\n      tag_18\n      jumpi\n      pop\n        /* \".git/Contracts/ControlStructures.sol\":396:397  0 */\n      0x00\n        /* \".git/Contracts/ControlStructures.sol\":391:392  5 */\n      0x05\n        /* \".git/Contracts/ControlStructures.sol\":381:388  _number */\n      dup4\n        /* \".git/Contracts/ControlStructures.sol\":381:392  _number % 5 */\n      tag_19\n      swap2\n      swap1\n      tag_17\n      jump\t// in\n    tag_19:\n        /* \".git/Contracts/ControlStructures.sol\":381:397  _number % 5 == 0 */\n      eq\n        /* \".git/Contracts/ControlStructures.sol\":361:397  _number % 3 == 0 && _number % 5 == 0 */\n    tag_18:\n        /* \".git/Contracts/ControlStructures.sol\":357:443  if (_number % 3 == 0 && _number % 5 == 0) {... */\n      iszero\n      tag_20\n      jumpi\n        /* \".git/Contracts/ControlStructures.sol\":414:431  return \"FizzBuzz\" */\n      mload(0x40)\n      dup1\n      0x40\n      add\n      0x40\n      mstore\n      dup1\n      0x08\n      dup2\n      mstore\n      0x20\n      add\n      0x46697a7a42757a7a000000000000000000000000000000000000000000000000\n      dup2\n      mstore\n      pop\n      swap1\n      pop\n      jump(tag_15)\n        /* \".git/Contracts/ControlStructures.sol\":357:443  if (_number % 3 == 0 && _number % 5 == 0) {... */\n    tag_20:\n        /* \".git/Contracts/ControlStructures.sol\":495:496  0 */\n      0x00\n        /* \".git/Contracts/ControlStructures.sol\":490:491  3 */\n      0x03\n        /* \".git/Contracts/ControlStructures.sol\":480:487  _number */\n      dup4\n        /* \".git/Contracts/ControlStructures.sol\":480:491  _number % 3 */\n      tag_21\n      swap2\n      swap1\n      tag_17\n      jump\t// in\n    tag_21:\n        /* \".git/Contracts/ControlStructures.sol\":480:496  _number % 3 == 0 */\n      sub\n        /* \".git/Contracts/ControlStructures.sol\":476:538  if (_number % 3 == 0) {... */\n      tag_22\n      jumpi\n        /* \".git/Contracts/ControlStructures.sol\":513:526  return \"Fizz\" */\n      mload(0x40)\n      dup1\n      0x40\n      add\n      0x40\n      mstore\n      dup1\n      0x04\n      dup2\n      mstore\n      0x20\n      add\n      0x46697a7a00000000000000000000000000000000000000000000000000000000\n      dup2\n      mstore\n      pop\n      swap1\n      pop\n      jump(tag_15)\n        /* \".git/Contracts/ControlStructures.sol\":476:538  if (_number % 3 == 0) {... */\n    tag_22:\n        /* \".git/Contracts/ControlStructures.sol\":590:591  0 */\n      0x00\n        /* \".git/Contracts/ControlStructures.sol\":585:586  5 */\n      0x05\n        /* \".git/Contracts/ControlStructures.sol\":575:582  _number */\n      dup4\n        /* \".git/Contracts/ControlStructures.sol\":575:586  _number % 5 */\n      tag_23\n      swap2\n      swap1\n      tag_17\n      jump\t// in\n    tag_23:\n        /* \".git/Contracts/ControlStructures.sol\":575:591  _number % 5 == 0 */\n      sub\n        /* \".git/Contracts/ControlStructures.sol\":571:633  if (_number % 5 == 0) {... */\n      tag_24\n      jumpi\n        /* \".git/Contracts/ControlStructures.sol\":608:621  return \"Buzz\" */\n      mload(0x40)\n      dup1\n      0x40\n      add\n      0x40\n      mstore\n      dup1\n      0x04\n      dup2\n      mstore\n      0x20\n      add\n      0x42757a7a00000000000000000000000000000000000000000000000000000000\n      dup2\n      mstore\n      pop\n      swap1\n      pop\n      jump(tag_15)\n        /* \".git/Contracts/ControlStructures.sol\":571:633  if (_number % 5 == 0) {... */\n    tag_24:\n        /* \".git/Contracts/ControlStructures.sol\":670:684  return \"Splat\" */\n      mload(0x40)\n      dup1\n      0x40\n      add\n      0x40\n      mstore\n      dup1\n      0x05\n      dup2\n      mstore\n      0x20\n      add\n      0x53706c6174000000000000000000000000000000000000000000000000000000\n      dup2\n      mstore\n      pop\n      swap1\n      pop\n        /* \".git/Contracts/ControlStructures.sol\":225:692  function fizzbuzz(uint256 _number) public pure returns (string memory) {... */\n    tag_15:\n      swap2\n      swap1\n      pop\n      jump\t// out\n        /* \".git/Contracts/ControlStructures.sol\":749:1683  function doNotdisturb(uint256 _time) public pure returns (string memory) {... */\n    tag_13:\n        /* \".git/Contracts/ControlStructures.sol\":807:820  string memory */\n      0x60\n        /* \".git/Contracts/ControlStructures.sol\":930:934  2400 */\n      0x0960\n        /* \".git/Contracts/ControlStructures.sol\":921:926  _time */\n      dup3\n        /* \".git/Contracts/ControlStructures.sol\":921:934  _time >= 2400 */\n      lt\n        /* \".git/Contracts/ControlStructures.sol\":917:1042  if (_time >= 2400) {... */\n      tag_26\n      jumpi\n        /* \".git/Contracts/ControlStructures.sol\":951:960  uint256 x */\n      0x00\n        /* \".git/Contracts/ControlStructures.sol\":963:964  0 */\n      0x00\n        /* \".git/Contracts/ControlStructures.sol\":951:964  uint256 x = 0 */\n      swap1\n      pop\n        /* \".git/Contracts/ControlStructures.sol\":987:988  1 */\n      0x01\n        /* \".git/Contracts/ControlStructures.sol\":983:984  x */\n      dup2\n        /* \".git/Contracts/ControlStructures.sol\":983:988  x - 1 */\n      tag_27\n      swap2\n      swap1\n      tag_28\n      jump\t// in\n    tag_27:\n        /* \".git/Contracts/ControlStructures.sol\":979:988  x = x - 1 */\n      swap1\n      pop\n        /* \".git/Contracts/ControlStructures.sol\":936:1042  {... */\n      pop\n        /* \".git/Contracts/ControlStructures.sol\":917:1042  if (_time >= 2400) {... */\n    tag_26:\n        /* \".git/Contracts/ControlStructures.sol\":1124:1127  800 */\n      0x0320\n        /* \".git/Contracts/ControlStructures.sol\":1116:1121  _time */\n      dup3\n        /* \".git/Contracts/ControlStructures.sol\":1116:1127  _time < 800 */\n      lt\n        /* \".git/Contracts/ControlStructures.sol\":1116:1143  _time < 800 || _time > 2200 */\n      dup1\n      tag_29\n      jumpi\n      pop\n        /* \".git/Contracts/ControlStructures.sol\":1139:1143  2200 */\n      0x0898\n        /* \".git/Contracts/ControlStructures.sol\":1131:1136  _time */\n      dup3\n        /* \".git/Contracts/ControlStructures.sol\":1131:1143  _time > 2200 */\n      gt\n        /* \".git/Contracts/ControlStructures.sol\":1116:1143  _time < 800 || _time > 2200 */\n    tag_29:\n        /* \".git/Contracts/ControlStructures.sol\":1112:1196  if (_time < 800 || _time > 2200) {... */\n      iszero\n      tag_30\n      jumpi\n        /* \".git/Contracts/ControlStructures.sol\":1178:1183  _time */\n      dup2\n        /* \".git/Contracts/ControlStructures.sol\":1167:1184  AfterHours(_time) */\n      mload(0x40)\n      0xa4bf701e00000000000000000000000000000000000000000000000000000000\n      dup2\n      mstore\n      0x04\n      add\n      tag_31\n      swap2\n      swap1\n      tag_32\n      jump\t// in\n    tag_31:\n      mload(0x40)\n      dup1\n      swap2\n      sub\n      swap1\n      revert\n        /* \".git/Contracts/ControlStructures.sol\":1112:1196  if (_time < 800 || _time > 2200) {... */\n    tag_30:\n        /* \".git/Contracts/ControlStructures.sol\":1263:1267  1200 */\n      0x04b0\n        /* \".git/Contracts/ControlStructures.sol\":1254:1259  _time */\n      dup3\n        /* \".git/Contracts/ControlStructures.sol\":1254:1267  _time >= 1200 */\n      lt\n      iszero\n        /* \".git/Contracts/ControlStructures.sol\":1254:1284  _time >= 1200 && _time <= 1259 */\n      dup1\n      iszero\n      tag_33\n      jumpi\n      pop\n        /* \".git/Contracts/ControlStructures.sol\":1280:1284  1259 */\n      0x04eb\n        /* \".git/Contracts/ControlStructures.sol\":1271:1276  _time */\n      dup3\n        /* \".git/Contracts/ControlStructures.sol\":1271:1284  _time <= 1259 */\n      gt\n      iszero\n        /* \".git/Contracts/ControlStructures.sol\":1254:1284  _time >= 1200 && _time <= 1259 */\n    tag_33:\n        /* \".git/Contracts/ControlStructures.sol\":1250:1332  if (_time >= 1200 && _time <= 1259) {... */\n      iszero\n      tag_34\n      jumpi\n        /* \".git/Contracts/ControlStructures.sol\":1301:1320  revert(\"At lunch!\") */\n      mload(0x40)\n      0x08c379a000000000000000000000000000000000000000000000000000000000\n      dup2\n      mstore\n      0x04\n      add\n      tag_35\n      swap1\n      tag_36\n      jump\t// in\n    tag_35:\n      mload(0x40)\n      dup1\n      swap2\n      sub\n      swap1\n      revert\n        /* \".git/Contracts/ControlStructures.sol\":1250:1332  if (_time >= 1200 && _time <= 1259) {... */\n    tag_34:\n        /* \".git/Contracts/ControlStructures.sol\":1395:1398  800 */\n      0x0320\n        /* \".git/Contracts/ControlStructures.sol\":1386:1391  _time */\n      dup3\n        /* \".git/Contracts/ControlStructures.sol\":1386:1398  _time >= 800 */\n      lt\n      iszero\n        /* \".git/Contracts/ControlStructures.sol\":1386:1415  _time >= 800 && _time <= 1199 */\n      dup1\n      iszero\n      tag_37\n      jumpi\n      pop\n        /* \".git/Contracts/ControlStructures.sol\":1411:1415  1199 */\n      0x04af\n        /* \".git/Contracts/ControlStructures.sol\":1402:1407  _time */\n      dup3\n        /* \".git/Contracts/ControlStructures.sol\":1402:1415  _time <= 1199 */\n      gt\n      iszero\n        /* \".git/Contracts/ControlStructures.sol\":1386:1415  _time >= 800 && _time <= 1199 */\n    tag_37:\n        /* \".git/Contracts/ControlStructures.sol\":1382:1461  if (_time >= 800 && _time <= 1199) {... */\n      iszero\n      tag_38\n      jumpi\n        /* \".git/Contracts/ControlStructures.sol\":1432:1449  return \"Morning!\" */\n      mload(0x40)\n      dup1\n      0x40\n      add\n      0x40\n      mstore\n      dup1\n      0x08\n      dup2\n      mstore\n      0x20\n      add\n      0x4d6f726e696e6721000000000000000000000000000000000000000000000000\n      dup2\n      mstore\n      pop\n      swap1\n      pop\n      jump(tag_25)\n        /* \".git/Contracts/ControlStructures.sol\":1382:1461  if (_time >= 800 && _time <= 1199) {... */\n    tag_38:\n        /* \".git/Contracts/ControlStructures.sol\":1526:1530  1300 */\n      0x0514\n        /* \".git/Contracts/ControlStructures.sol\":1517:1522  _time */\n      dup3\n        /* \".git/Contracts/ControlStructures.sol\":1517:1530  _time >= 1300 */\n      lt\n      iszero\n        /* \".git/Contracts/ControlStructures.sol\":1517:1547  _time >= 1300 && _time <= 1799 */\n      dup1\n      iszero\n      tag_39\n      jumpi\n      pop\n        /* \".git/Contracts/ControlStructures.sol\":1543:1547  1799 */\n      0x0707\n        /* \".git/Contracts/ControlStructures.sol\":1534:1539  _time */\n      dup3\n        /* \".git/Contracts/ControlStructures.sol\":1534:1547  _time <= 1799 */\n      gt\n      iszero\n        /* \".git/Contracts/ControlStructures.sol\":1517:1547  _time >= 1300 && _time <= 1799 */\n    tag_39:\n        /* \".git/Contracts/ControlStructures.sol\":1513:1595  if (_time >= 1300 && _time <= 1799) {... */\n      iszero\n      tag_40\n      jumpi\n        /* \".git/Contracts/ControlStructures.sol\":1564:1583  return \"Afternoon!\" */\n      mload(0x40)\n      dup1\n      0x40\n      add\n      0x40\n      mstore\n      dup1\n      0x0a\n      dup2\n      mstore\n      0x20\n      add\n      0x41667465726e6f6f6e2100000000000000000000000000000000000000000000\n      dup2\n      mstore\n      pop\n      swap1\n      pop\n      jump(tag_25)\n        /* \".git/Contracts/ControlStructures.sol\":1513:1595  if (_time >= 1300 && _time <= 1799) {... */\n    tag_40:\n        /* \".git/Contracts/ControlStructures.sol\":1658:1675  return \"Evening!\" */\n      mload(0x40)\n      dup1\n      0x40\n      add\n      0x40\n      mstore\n      dup1\n      0x08\n      dup2\n      mstore\n      0x20\n      add\n      0x4576656e696e6721000000000000000000000000000000000000000000000000\n      dup2\n      mstore\n      pop\n      swap1\n      pop\n        /* \".git/Contracts/ControlStructures.sol\":749:1683  function doNotdisturb(uint256 _time) public pure returns (string memory) {... */\n    tag_25:\n      swap2\n      swap1\n      pop\n      jump\t// out\n        /* \"#utility.yul\":88:205   */\n    tag_42:\n        /* \"#utility.yul\":197:198   */\n      0x00\n        /* \"#utility.yul\":194:195   */\n      0x00\n        /* \"#utility.yul\":187:199   */\n      revert\n        /* \"#utility.yul\":334:411   */\n    tag_44:\n        /* \"#utility.yul\":371:378   */\n      0x00\n        /* \"#utility.yul\":400:405   */\n      dup2\n        /* \"#utility.yul\":389:405   */\n      swap1\n      pop\n        /* \"#utility.yul\":334:411   */\n      swap2\n      swap1\n      pop\n      jump\t// out\n        /* \"#utility.yul\":417:539   */\n    tag_45:\n        /* \"#utility.yul\":490:514   */\n      tag_63\n        /* \"#utility.yul\":508:513   */\n      dup2\n        /* \"#utility.yul\":490:514   */\n      tag_44\n      jump\t// in\n    tag_63:\n        /* \"#utility.yul\":483:488   */\n      dup2\n        /* \"#utility.yul\":480:515   */\n      eq\n        /* \"#utility.yul\":470:533   */\n      tag_64\n      jumpi\n        /* \"#utility.yul\":529:530   */\n      0x00\n        /* \"#utility.yul\":526:527   */\n      0x00\n        /* \"#utility.yul\":519:531   */\n      revert\n        /* \"#utility.yul\":470:533   */\n    tag_64:\n        /* \"#utility.yul\":417:539   */\n      pop\n      jump\t// out\n        /* \"#utility.yul\":545:684   */\n    tag_46:\n        /* \"#utility.yul\":591:596   */\n      0x00\n        /* \"#utility.yul\":629:635   */\n      dup2\n        /* \"#utility.yul\":616:636   */\n      calldataload\n        /* \"#utility.yul\":607:636   */\n      swap1\n      pop\n        /* \"#utility.yul\":645:678   */\n      tag_66\n        /* \"#utility.yul\":672:677   */\n      dup2\n        /* \"#utility.yul\":645:678   */\n      tag_45\n      jump\t// in\n    tag_66:\n        /* \"#utility.yul\":545:684   */\n      swap3\n      swap2\n      pop\n      pop\n      jump\t// out\n        /* \"#utility.yul\":690:1019   */\n    tag_7:\n        /* \"#utility.yul\":749:755   */\n      0x00\n        /* \"#utility.yul\":798:800   */\n      0x20\n        /* \"#utility.yul\":786:795   */\n      dup3\n        /* \"#utility.yul\":777:784   */\n      dup5\n        /* \"#utility.yul\":773:796   */\n      sub\n        /* \"#utility.yul\":769:801   */\n      slt\n        /* \"#utility.yul\":766:885   */\n      iszero\n      tag_68\n      jumpi\n        /* \"#utility.yul\":804:883   */\n      tag_69\n      tag_42\n      jump\t// in\n    tag_69:\n        /* \"#utility.yul\":766:885   */\n    tag_68:\n        /* \"#utility.yul\":924:925   */\n      0x00\n        /* \"#utility.yul\":949:1002   */\n      tag_70\n        /* \"#utility.yul\":994:1001   */\n      dup5\n        /* \"#utility.yul\":985:991   */\n      dup3\n        /* \"#utility.yul\":974:983   */\n      dup6\n        /* \"#utility.yul\":970:992   */\n      add\n        /* \"#utility.yul\":949:1002   */\n      tag_46\n      jump\t// in\n    tag_70:\n        /* \"#utility.yul\":939:1002   */\n      swap2\n      pop\n        /* \"#utility.yul\":895:1012   */\n      pop\n        /* \"#utility.yul\":690:1019   */\n      swap3\n      swap2\n      pop\n      pop\n      jump\t// out\n        /* \"#utility.yul\":1025:1124   */\n    tag_47:\n        /* \"#utility.yul\":1077:1083   */\n      0x00\n        /* \"#utility.yul\":1111:1116   */\n      dup2\n        /* \"#utility.yul\":1105:1117   */\n      mload\n        /* \"#utility.yul\":1095:1117   */\n      swap1\n      pop\n        /* \"#utility.yul\":1025:1124   */\n      swap2\n      swap1\n      pop\n      jump\t// out\n        /* \"#utility.yul\":1130:1299   */\n    tag_48:\n        /* \"#utility.yul\":1214:1225   */\n      0x00\n        /* \"#utility.yul\":1248:1254   */\n      dup3\n        /* \"#utility.yul\":1243:1246   */\n      dup3\n        /* \"#utility.yul\":1236:1255   */\n      mstore\n        /* \"#utility.yul\":1288:1292   */\n      0x20\n        /* \"#utility.yul\":1283:1286   */\n      dup3\n        /* \"#utility.yul\":1279:1293   */\n      add\n        /* \"#utility.yul\":1264:1293   */\n      swap1\n      pop\n        /* \"#utility.yul\":1130:1299   */\n      swap3\n      swap2\n      pop\n      pop\n      jump\t// out\n        /* \"#utility.yul\":1305:1444   */\n    tag_49:\n        /* \"#utility.yul\":1394:1400   */\n      dup3\n        /* \"#utility.yul\":1389:1392   */\n      dup2\n        /* \"#utility.yul\":1384:1387   */\n      dup4\n        /* \"#utility.yul\":1378:1401   */\n      mcopy\n        /* \"#utility.yul\":1435:1436   */\n      0x00\n        /* \"#utility.yul\":1426:1432   */\n      dup4\n        /* \"#utility.yul\":1421:1424   */\n      dup4\n        /* \"#utility.yul\":1417:1433   */\n      add\n        /* \"#utility.yul\":1410:1437   */\n      mstore\n        /* \"#utility.yul\":1305:1444   */\n      pop\n      pop\n      pop\n      jump\t// out\n        /* \"#utility.yul\":1450:1552   */\n    tag_50:\n        /* \"#utility.yul\":1491:1497   */\n      0x00\n        /* \"#utility.yul\":1542:1544   */\n      0x1f\n        /* \"#utility.yul\":1538:1545   */\n      not\n        /* \"#utility.yul\":1533:1535   */\n      0x1f\n        /* \"#utility.yul\":1526:1531   */\n      dup4\n        /* \"#utility.yul\":1522:1536   */\n      add\n        /* \"#utility.yul\":1518:1546   */\n      and\n        /* \"#utility.yul\":1508:1546   */\n      swap1\n      pop\n        /* \"#utility.yul\":1450:1552   */\n      swap2\n      swap1\n      pop\n      jump\t// out\n        /* \"#utility.yul\":1558:1935   */\n    tag_51:\n        /* \"#utility.yul\":1646:1649   */\n      0x00\n        /* \"#utility.yul\":1674:1713   */\n      tag_76\n        /* \"#utility.yul\":1707:1712   */\n      dup3\n        /* \"#utility.yul\":1674:1713   */\n      tag_47\n      jump\t// in\n    tag_76:\n        /* \"#utility.yul\":1729:1800   */\n      tag_77\n        /* \"#utility.yul\":1793:1799   */\n      dup2\n        /* \"#utility.yul\":1788:1791   */\n      dup6\n        /* \"#utility.yul\":1729:1800   */\n      tag_48\n      jump\t// in\n    tag_77:\n        /* \"#utility.yul\":1722:1800   */\n      swap4\n      pop\n        /* \"#utility.yul\":1809:1874   */\n      tag_78\n        /* \"#utility.yul\":1867:1873   */\n      dup2\n        /* \"#utility.yul\":1862:1865   */\n      dup6\n        /* \"#utility.yul\":1855:1859   */\n      0x20\n        /* \"#utility.yul\":1848:1853   */\n      dup7\n        /* \"#utility.yul\":1844:1860   */\n      add\n        /* \"#utility.yul\":1809:1874   */\n      tag_49\n      jump\t// in\n    tag_78:\n        /* \"#utility.yul\":1899:1928   */\n      tag_79\n        /* \"#utility.yul\":1921:1927   */\n      dup2\n        /* \"#utility.yul\":1899:1928   */\n      tag_50\n      jump\t// in\n    tag_79:\n        /* \"#utility.yul\":1894:1897   */\n      dup5\n        /* \"#utility.yul\":1890:1929   */\n      add\n        /* \"#utility.yul\":1883:1929   */\n      swap2\n      pop\n        /* \"#utility.yul\":1650:1935   */\n      pop\n        /* \"#utility.yul\":1558:1935   */\n      swap3\n      swap2\n      pop\n      pop\n      jump\t// out\n        /* \"#utility.yul\":1941:2254   */\n    tag_10:\n        /* \"#utility.yul\":2054:2058   */\n      0x00\n        /* \"#utility.yul\":2092:2094   */\n      0x20\n        /* \"#utility.yul\":2081:2090   */\n      dup3\n        /* \"#utility.yul\":2077:2095   */\n      add\n        /* \"#utility.yul\":2069:2095   */\n      swap1\n      pop\n        /* \"#utility.yul\":2141:2150   */\n      dup2\n        /* \"#utility.yul\":2135:2139   */\n      dup2\n        /* \"#utility.yul\":2131:2151   */\n      sub\n        /* \"#utility.yul\":2127:2128   */\n      0x00\n        /* \"#utility.yul\":2116:2125   */\n      dup4\n        /* \"#utility.yul\":2112:2129   */\n      add\n        /* \"#utility.yul\":2105:2152   */\n      mstore\n        /* \"#utility.yul\":2169:2247   */\n      tag_81\n        /* \"#utility.yul\":2242:2246   */\n      dup2\n        /* \"#utility.yul\":2233:2239   */\n      dup5\n        /* \"#utility.yul\":2169:2247   */\n      tag_51\n      jump\t// in\n    tag_81:\n        /* \"#utility.yul\":2161:2247   */\n      swap1\n      pop\n        /* \"#utility.yul\":1941:2254   */\n      swap3\n      swap2\n      pop\n      pop\n      jump\t// out\n        /* \"#utility.yul\":2260:2440   */\n    tag_52:\n        /* \"#utility.yul\":2308:2385   */\n      0x4e487b7100000000000000000000000000000000000000000000000000000000\n        /* \"#utility.yul\":2305:2306   */\n      0x00\n        /* \"#utility.yul\":2298:2386   */\n      mstore\n        /* \"#utility.yul\":2405:2409   */\n      0x12\n        /* \"#utility.yul\":2402:2403   */\n      0x04\n        /* \"#utility.yul\":2395:2410   */\n      mstore\n        /* \"#utility.yul\":2429:2433   */\n      0x24\n        /* \"#utility.yul\":2426:2427   */\n      0x00\n        /* \"#utility.yul\":2419:2434   */\n      revert\n        /* \"#utility.yul\":2446:2622   */\n    tag_17:\n        /* \"#utility.yul\":2478:2479   */\n      0x00\n        /* \"#utility.yul\":2495:2515   */\n      tag_84\n        /* \"#utility.yul\":2513:2514   */\n      dup3\n        /* \"#utility.yul\":2495:2515   */\n      tag_44\n      jump\t// in\n    tag_84:\n        /* \"#utility.yul\":2490:2515   */\n      swap2\n      pop\n        /* \"#utility.yul\":2529:2549   */\n      tag_85\n        /* \"#utility.yul\":2547:2548   */\n      dup4\n        /* \"#utility.yul\":2529:2549   */\n      tag_44\n      jump\t// in\n    tag_85:\n        /* \"#utility.yul\":2524:2549   */\n      swap3\n      pop\n        /* \"#utility.yul\":2568:2569   */\n      dup3\n        /* \"#utility.yul\":2558:2593   */\n      tag_86\n      jumpi\n        /* \"#utility.yul\":2573:2591   */\n      tag_87\n      tag_52\n      jump\t// in\n    tag_87:\n        /* \"#utility.yul\":2558:2593   */\n    tag_86:\n        /* \"#utility.yul\":2614:2615   */\n      dup3\n        /* \"#utility.yul\":2611:2612   */\n      dup3\n        /* \"#utility.yul\":2607:2616   */\n      mod\n        /* \"#utility.yul\":2602:2616   */\n      swap1\n      pop\n        /* \"#utility.yul\":2446:2622   */\n      swap3\n      swap2\n      pop\n      pop\n      jump\t// out\n        /* \"#utility.yul\":2628:2808   */\n    tag_53:\n        /* \"#utility.yul\":2676:2753   */\n      0x4e487b7100000000000000000000000000000000000000000000000000000000\n        /* \"#utility.yul\":2673:2674   */\n      0x00\n        /* \"#utility.yul\":2666:2754   */\n      mstore\n        /* \"#utility.yul\":2773:2777   */\n      0x11\n        /* \"#utility.yul\":2770:2771   */\n      0x04\n        /* \"#utility.yul\":2763:2778   */\n      mstore\n        /* \"#utility.yul\":2797:2801   */\n      0x24\n        /* \"#utility.yul\":2794:2795   */\n      0x00\n        /* \"#utility.yul\":2787:2802   */\n      revert\n        /* \"#utility.yul\":2814:3008   */\n    tag_28:\n        /* \"#utility.yul\":2854:2858   */\n      0x00\n        /* \"#utility.yul\":2874:2894   */\n      tag_90\n        /* \"#utility.yul\":2892:2893   */\n      dup3\n        /* \"#utility.yul\":2874:2894   */\n      tag_44\n      jump\t// in\n    tag_90:\n        /* \"#utility.yul\":2869:2894   */\n      swap2\n      pop\n        /* \"#utility.yul\":2908:2928   */\n      tag_91\n        /* \"#utility.yul\":2926:2927   */\n      dup4\n        /* \"#utility.yul\":2908:2928   */\n      tag_44\n      jump\t// in\n    tag_91:\n        /* \"#utility.yul\":2903:2928   */\n      swap3\n      pop\n        /* \"#utility.yul\":2952:2953   */\n      dup3\n        /* \"#utility.yul\":2949:2950   */\n      dup3\n        /* \"#utility.yul\":2945:2954   */\n      sub\n        /* \"#utility.yul\":2937:2954   */\n      swap1\n      pop\n        /* \"#utility.yul\":2976:2977   */\n      dup2\n        /* \"#utility.yul\":2970:2974   */\n      dup2\n        /* \"#utility.yul\":2967:2978   */\n      gt\n        /* \"#utility.yul\":2964:3001   */\n      iszero\n      tag_92\n      jumpi\n        /* \"#utility.yul\":2981:2999   */\n      tag_93\n      tag_53\n      jump\t// in\n    tag_93:\n        /* \"#utility.yul\":2964:3001   */\n    tag_92:\n        /* \"#utility.yul\":2814:3008   */\n      swap3\n      swap2\n      pop\n      pop\n      jump\t// out\n        /* \"#utility.yul\":3014:3132   */\n    tag_54:\n        /* \"#utility.yul\":3101:3125   */\n      tag_95\n        /* \"#utility.yul\":3119:3124   */\n      dup2\n        /* \"#utility.yul\":3101:3125   */\n      tag_44\n      jump\t// in\n    tag_95:\n        /* \"#utility.yul\":3096:3099   */\n      dup3\n        /* \"#utility.yul\":3089:3126   */\n      mstore\n        /* \"#utility.yul\":3014:3132   */\n      pop\n      pop\n      jump\t// out\n        /* \"#utility.yul\":3138:3360   */\n    tag_32:\n        /* \"#utility.yul\":3231:3235   */\n      0x00\n        /* \"#utility.yul\":3269:3271   */\n      0x20\n        /* \"#utility.yul\":3258:3267   */\n      dup3\n        /* \"#utility.yul\":3254:3272   */\n      add\n        /* \"#utility.yul\":3246:3272   */\n      swap1\n      pop\n        /* \"#utility.yul\":3282:3353   */\n      tag_97\n        /* \"#utility.yul\":3350:3351   */\n      0x00\n        /* \"#utility.yul\":3339:3348   */\n      dup4\n        /* \"#utility.yul\":3335:3352   */\n      add\n        /* \"#utility.yul\":3326:3332   */\n      dup5\n        /* \"#utility.yul\":3282:3353   */\n      tag_54\n      jump\t// in\n    tag_97:\n        /* \"#utility.yul\":3138:3360   */\n      swap3\n      swap2\n      pop\n      pop\n      jump\t// out\n        /* \"#utility.yul\":3366:3525   */\n    tag_55:\n        /* \"#utility.yul\":3506:3517   */\n      0x4174206c756e6368210000000000000000000000000000000000000000000000\n        /* \"#utility.yul\":3502:3503   */\n      0x00\n        /* \"#utility.yul\":3494:3500   */\n      dup3\n        /* \"#utility.yul\":3490:3504   */\n      add\n        /* \"#utility.yul\":3483:3518   */\n      mstore\n        /* \"#utility.yul\":3366:3525   */\n      pop\n      jump\t// out\n        /* \"#utility.yul\":3531:3896   */\n    tag_56:\n        /* \"#utility.yul\":3673:3676   */\n      0x00\n        /* \"#utility.yul\":3694:3760   */\n      tag_100\n        /* \"#utility.yul\":3758:3759   */\n      0x09\n        /* \"#utility.yul\":3753:3756   */\n      dup4\n        /* \"#utility.yul\":3694:3760   */\n      tag_48\n      jump\t// in\n    tag_100:\n        /* \"#utility.yul\":3687:3760   */\n      swap2\n      pop\n        /* \"#utility.yul\":3769:3862   */\n      tag_101\n        /* \"#utility.yul\":3858:3861   */\n      dup3\n        /* \"#utility.yul\":3769:3862   */\n      tag_55\n      jump\t// in\n    tag_101:\n        /* \"#utility.yul\":3887:3889   */\n      0x20\n        /* \"#utility.yul\":3882:3885   */\n      dup3\n        /* \"#utility.yul\":3878:3890   */\n      add\n        /* \"#utility.yul\":3871:3890   */\n      swap1\n      pop\n        /* \"#utility.yul\":3531:3896   */\n      swap2\n      swap1\n      pop\n      jump\t// out\n        /* \"#utility.yul\":3902:4321   */\n    tag_36:\n        /* \"#utility.yul\":4068:4072   */\n      0x00\n        /* \"#utility.yul\":4106:4108   */\n      0x20\n        /* \"#utility.yul\":4095:4104   */\n      dup3\n        /* \"#utility.yul\":4091:4109   */\n      add\n        /* \"#utility.yul\":4083:4109   */\n      swap1\n      pop\n        /* \"#utility.yul\":4155:4164   */\n      dup2\n        /* \"#utility.yul\":4149:4153   */\n      dup2\n        /* \"#utility.yul\":4145:4165   */\n      sub\n        /* \"#utility.yul\":4141:4142   */\n      0x00\n        /* \"#utility.yul\":4130:4139   */\n      dup4\n        /* \"#utility.yul\":4126:4143   */\n      add\n        /* \"#utility.yul\":4119:4166   */\n      mstore\n        /* \"#utility.yul\":4183:4314   */\n      tag_103\n        /* \"#utility.yul\":4309:4313   */\n      dup2\n        /* \"#utility.yul\":4183:4314   */\n      tag_56\n      jump\t// in\n    tag_103:\n        /* \"#utility.yul\":4175:4314   */\n      swap1\n      pop\n        /* \"#utility.yul\":3902:4321   */\n      swap2\n      swap1\n      pop\n      jump\t// out\n\n    auxdata: 0xa2646970667358221220ba5bac10e779ce31245e1f59449d61602bf8c55e91a658de124c6820bdc7c06064736f6c634300081e0033\n}\n",
				"bytecode": {
					"linkReferences": {},
					"object": "6080604052348015600e575f5ffd5b506106068061001c5f395ff3fe608060405234801561000f575f5ffd5b5060043610610034575f3560e01c806306c3c5191461003857806365cae82714610068575b5f5ffd5b610052600480360381019061004d91906103c8565b610098565b60405161005f9190610463565b60405180910390f35b610082600480360381019061007d91906103c8565b6101e0565b60405161008f9190610463565b60405180910390f35b60605f6003836100a891906104b0565b1480156100c057505f6005836100be91906104b0565b145b15610102576040518060400160405280600881526020017f46697a7a42757a7a00000000000000000000000000000000000000000000000081525090506101db565b5f60038361011091906104b0565b03610152576040518060400160405280600481526020017f46697a7a0000000000000000000000000000000000000000000000000000000081525090506101db565b5f60058361016091906104b0565b036101a2576040518060400160405280600481526020017f42757a7a0000000000000000000000000000000000000000000000000000000081525090506101db565b6040518060400160405280600581526020017f53706c617400000000000000000000000000000000000000000000000000000081525090505b919050565b60606109608210610200575f5f90506001816101fc919061050d565b9050505b610320821080610211575061089882115b1561025357816040517fa4bf701e00000000000000000000000000000000000000000000000000000000815260040161024a919061054f565b60405180910390fd5b6104b0821015801561026757506104eb8211155b156102a7576040517f08c379a000000000000000000000000000000000000000000000000000000000815260040161029e906105b2565b60405180910390fd5b61032082101580156102bb57506104af8211155b156102fd576040518060400160405280600881526020017f4d6f726e696e6721000000000000000000000000000000000000000000000000815250905061038c565b610514821015801561031157506107078211155b15610353576040518060400160405280600a81526020017f41667465726e6f6f6e2100000000000000000000000000000000000000000000815250905061038c565b6040518060400160405280600881526020017f4576656e696e672100000000000000000000000000000000000000000000000081525090505b919050565b5f5ffd5b5f819050919050565b6103a781610395565b81146103b1575f5ffd5b50565b5f813590506103c28161039e565b92915050565b5f602082840312156103dd576103dc610391565b5b5f6103ea848285016103b4565b91505092915050565b5f81519050919050565b5f82825260208201905092915050565b8281835e5f83830152505050565b5f601f19601f8301169050919050565b5f610435826103f3565b61043f81856103fd565b935061044f81856020860161040d565b6104588161041b565b840191505092915050565b5f6020820190508181035f83015261047b818461042b565b905092915050565b7f4e487b71000000000000000000000000000000000000000000000000000000005f52601260045260245ffd5b5f6104ba82610395565b91506104c583610395565b9250826104d5576104d4610483565b5b828206905092915050565b7f4e487b71000000000000000000000000000000000000000000000000000000005f52601160045260245ffd5b5f61051782610395565b915061052283610395565b925082820390508181111561053a576105396104e0565b5b92915050565b61054981610395565b82525050565b5f6020820190506105625f830184610540565b92915050565b7f4174206c756e63682100000000000000000000000000000000000000000000005f82015250565b5f61059c6009836103fd565b91506105a782610568565b602082019050919050565b5f6020820190508181035f8301526105c981610590565b905091905056fea2646970667358221220ba5bac10e779ce31245e1f59449d61602bf8c55e91a658de124c6820bdc7c06064736f6c634300081e0033",
					"opcodes": "PUSH1 0x80 PUSH1 0x40 MSTORE CALLVALUE DUP1 ISZERO PUSH1 0xE JUMPI PUSH0 PUSH0 REVERT JUMPDEST POP PUSH2 0x606 DUP1 PUSH2 0x1C PUSH0 CODECOPY PUSH0 RETURN INVALID PUSH1 0x80 PUSH1 0x40 MSTORE CALLVALUE DUP1 ISZERO PUSH2 0xF JUMPI PUSH0 PUSH0 REVERT JUMPDEST POP PUSH1 0x4 CALLDATASIZE LT PUSH2 0x34 JUMPI PUSH0 CALLDATALOAD PUSH1 0xE0 SHR DUP1 PUSH4 0x6C3C519 EQ PUSH2 0x38 JUMPI DUP1 PUSH4 0x65CAE827 EQ PUSH2 0x68 JUMPI JUMPDEST PUSH0 PUSH0 REVERT JUMPDEST PUSH2 0x52 PUSH1 0x4 DUP1 CALLDATASIZE SUB DUP2 ADD SWAP1 PUSH2 0x4D SWAP2 SWAP1 PUSH2 0x3C8 JUMP JUMPDEST PUSH2 0x98 JUMP JUMPDEST PUSH1 0x40 MLOAD PUSH2 0x5F SWAP2 SWAP1 PUSH2 0x463 JUMP JUMPDEST PUSH1 0x40 MLOAD DUP1 SWAP2 SUB SWAP1 RETURN JUMPDEST PUSH2 0x82 PUSH1 0x4 DUP1 CALLDATASIZE SUB DUP2 ADD SWAP1 PUSH2 0x7D SWAP2 SWAP1 PUSH2 0x3C8 JUMP JUMPDEST PUSH2 0x1E0 JUMP JUMPDEST PUSH1 0x40 MLOAD PUSH2 0x8F SWAP2 SWAP1 PUSH2 0x463 JUMP JUMPDEST PUSH1 0x40 MLOAD DUP1 SWAP2 SUB SWAP1 RETURN JUMPDEST PUSH1 0x60 PUSH0 PUSH1 0x3 DUP4 PUSH2 0xA8 SWAP2 SWAP1 PUSH2 0x4B0 JUMP JUMPDEST EQ DUP1 ISZERO PUSH2 0xC0 JUMPI POP PUSH0 PUSH1 0x5 DUP4 PUSH2 0xBE SWAP2 SWAP1 PUSH2 0x4B0 JUMP JUMPDEST EQ JUMPDEST ISZERO PUSH2 0x102 JUMPI PUSH1 0x40 MLOAD DUP1 PUSH1 0x40 ADD PUSH1 0x40 MSTORE DUP1 PUSH1 0x8 DUP2 MSTORE PUSH1 0x20 ADD PUSH32 0x46697A7A42757A7A000000000000000000000000000000000000000000000000 DUP2 MSTORE POP SWAP1 POP PUSH2 0x1DB JUMP JUMPDEST PUSH0 PUSH1 0x3 DUP4 PUSH2 0x110 SWAP2 SWAP1 PUSH2 0x4B0 JUMP JUMPDEST SUB PUSH2 0x152 JUMPI PUSH1 0x40 MLOAD DUP1 PUSH1 0x40 ADD PUSH1 0x40 MSTORE DUP1 PUSH1 0x4 DUP2 MSTORE PUSH1 0x20 ADD PUSH32 0x46697A7A00000000000000000000000000000000000000000000000000000000 DUP2 MSTORE POP SWAP1 POP PUSH2 0x1DB JUMP JUMPDEST PUSH0 PUSH1 0x5 DUP4 PUSH2 0x160 SWAP2 SWAP1 PUSH2 0x4B0 JUMP JUMPDEST SUB PUSH2 0x1A2 JUMPI PUSH1 0x40 MLOAD DUP1 PUSH1 0x40 ADD PUSH1 0x40 MSTORE DUP1 PUSH1 0x4 DUP2 MSTORE PUSH1 0x20 ADD PUSH32 0x42757A7A00000000000000000000000000000000000000000000000000000000 DUP2 MSTORE POP SWAP1 POP PUSH2 0x1DB JUMP JUMPDEST PUSH1 0x40 MLOAD DUP1 PUSH1 0x40 ADD PUSH1 0x40 MSTORE DUP1 PUSH1 0x5 DUP2 MSTORE PUSH1 0x20 ADD PUSH32 0x53706C6174000000000000000000000000000000000000000000000000000000 DUP2 MSTORE POP SWAP1 POP JUMPDEST SWAP2 SWAP1 POP JUMP JUMPDEST PUSH1 0x60 PUSH2 0x960 DUP3 LT PUSH2 0x200 JUMPI PUSH0 PUSH0 SWAP1 POP PUSH1 0x1 DUP2 PUSH2 0x1FC SWAP2 SWAP1 PUSH2 0x50D JUMP JUMPDEST SWAP1 POP POP JUMPDEST PUSH2 0x320 DUP3 LT DUP1 PUSH2 0x211 JUMPI POP PUSH2 0x898 DUP3 GT JUMPDEST ISZERO PUSH2 0x253 JUMPI DUP2 PUSH1 0x40 MLOAD PUSH32 0xA4BF701E00000000000000000000000000000000000000000000000000000000 DUP2 MSTORE PUSH1 0x4 ADD PUSH2 0x24A SWAP2 SWAP1 PUSH2 0x54F JUMP JUMPDEST PUSH1 0x40 MLOAD DUP1 SWAP2 SUB SWAP1 REVERT JUMPDEST PUSH2 0x4B0 DUP3 LT ISZERO DUP1 ISZERO PUSH2 0x267 JUMPI POP PUSH2 0x4EB DUP3 GT ISZERO JUMPDEST ISZERO PUSH2 0x2A7 JUMPI PUSH1 0x40 MLOAD PUSH32 0x8C379A000000000000000000000000000000000000000000000000000000000 DUP2 MSTORE PUSH1 0x4 ADD PUSH2 0x29E SWAP1 PUSH2 0x5B2 JUMP JUMPDEST PUSH1 0x40 MLOAD DUP1 SWAP2 SUB SWAP1 REVERT JUMPDEST PUSH2 0x320 DUP3 LT ISZERO DUP1 ISZERO PUSH2 0x2BB JUMPI POP PUSH2 0x4AF DUP3 GT ISZERO JUMPDEST ISZERO PUSH2 0x2FD JUMPI PUSH1 0x40 MLOAD DUP1 PUSH1 0x40 ADD PUSH1 0x40 MSTORE DUP1 PUSH1 0x8 DUP2 MSTORE PUSH1 0x20 ADD PUSH32 0x4D6F726E696E6721000000000000000000000000000000000000000000000000 DUP2 MSTORE POP SWAP1 POP PUSH2 0x38C JUMP JUMPDEST PUSH2 0x514 DUP3 LT ISZERO DUP1 ISZERO PUSH2 0x311 JUMPI POP PUSH2 0x707 DUP3 GT ISZERO JUMPDEST ISZERO PUSH2 0x353 JUMPI PUSH1 0x40 MLOAD DUP1 PUSH1 0x40 ADD PUSH1 0x40 MSTORE DUP1 PUSH1 0xA DUP2 MSTORE PUSH1 0x20 ADD PUSH32 0x41667465726E6F6F6E2100000000000000000000000000000000000000000000 DUP2 MSTORE POP SWAP1 POP PUSH2 0x38C JUMP JUMPDEST PUSH1 0x40 MLOAD DUP1 PUSH1 0x40 ADD PUSH1 0x40 MSTORE DUP1 PUSH1 0x8 DUP2 MSTORE PUSH1 0x20 ADD PUSH32 0x4576656E696E6721000000000000000000000000000000000000000000000000 DUP2 MSTORE POP SWAP1 POP JUMPDEST SWAP2 SWAP1 POP JUMP JUMPDEST PUSH0 PUSH0 REVERT JUMPDEST PUSH0 DUP2 SWAP1 POP SWAP2 SWAP1 POP JUMP JUMPDEST PUSH2 0x3A7 DUP2 PUSH2 0x395 JUMP JUMPDEST DUP2 EQ PUSH2 0x3B1 JUMPI PUSH0 PUSH0 REVERT JUMPDEST POP JUMP JUMPDEST PUSH0 DUP2 CALLDATALOAD SWAP1 POP PUSH2 0x3C2 DUP2 PUSH2 0x39E JUMP JUMPDEST SWAP3 SWAP2 POP POP JUMP JUMPDEST PUSH0 PUSH1 0x20 DUP3 DUP5 SUB SLT ISZERO PUSH2 0x3DD JUMPI PUSH2 0x3DC PUSH2 0x391 JUMP JUMPDEST JUMPDEST PUSH0 PUSH2 0x3EA DUP5 DUP3 DUP6 ADD PUSH2 0x3B4 JUMP JUMPDEST SWAP2 POP POP SWAP3 SWAP2 POP POP JUMP JUMPDEST PUSH0 DUP2 MLOAD SWAP1 POP SWAP2 SWAP1 POP JUMP JUMPDEST PUSH0 DUP3 DUP3 MSTORE PUSH1 0x20 DUP3 ADD SWAP1 POP SWAP3 SWAP2 POP POP JUMP JUMPDEST DUP3 DUP2 DUP4 MCOPY PUSH0 DUP4 DUP4 ADD MSTORE POP POP POP JUMP JUMPDEST PUSH0 PUSH1 0x1F NOT PUSH1 0x1F DUP4 ADD AND SWAP1 POP SWAP2 SWAP1 POP JUMP JUMPDEST PUSH0 PUSH2 0x435 DUP3 PUSH2 0x3F3 JUMP JUMPDEST PUSH2 0x43F DUP2 DUP6 PUSH2 0x3FD JUMP JUMPDEST SWAP4 POP PUSH2 0x44F DUP2 DUP6 PUSH1 0x20 DUP7 ADD PUSH2 0x40D JUMP JUMPDEST PUSH2 0x458 DUP2 PUSH2 0x41B JUMP JUMPDEST DUP5 ADD SWAP2 POP POP SWAP3 SWAP2 POP POP JUMP JUMPDEST PUSH0 PUSH1 0x20 DUP3 ADD SWAP1 POP DUP2 DUP2 SUB PUSH0 DUP4 ADD MSTORE PUSH2 0x47B DUP2 DUP5 PUSH2 0x42B JUMP JUMPDEST SWAP1 POP SWAP3 SWAP2 POP POP JUMP JUMPDEST PUSH32 0x4E487B7100000000000000000000000000000000000000000000000000000000 PUSH0 MSTORE PUSH1 0x12 PUSH1 0x4 MSTORE PUSH1 0x24 PUSH0 REVERT JUMPDEST PUSH0 PUSH2 0x4BA DUP3 PUSH2 0x395 JUMP JUMPDEST SWAP2 POP PUSH2 0x4C5 DUP4 PUSH2 0x395 JUMP JUMPDEST SWAP3 POP DUP3 PUSH2 0x4D5 JUMPI PUSH2 0x4D4 PUSH2 0x483 JUMP JUMPDEST JUMPDEST DUP3 DUP3 MOD SWAP1 POP SWAP3 SWAP2 POP POP JUMP JUMPDEST PUSH32 0x4E487B7100000000000000000000000000000000000000000000000000000000 PUSH0 MSTORE PUSH1 0x11 PUSH1 0x4 MSTORE PUSH1 0x24 PUSH0 REVERT JUMPDEST PUSH0 PUSH2 0x517 DUP3 PUSH2 0x395 JUMP JUMPDEST SWAP2 POP PUSH2 0x522 DUP4 PUSH2 0x395 JUMP JUMPDEST SWAP3 POP DUP3 DUP3 SUB SWAP1 POP DUP2 DUP2 GT ISZERO PUSH2 0x53A JUMPI PUSH2 0x539 PUSH2 0x4E0 JUMP JUMPDEST JUMPDEST SWAP3 SWAP2 POP POP JUMP JUMPDEST PUSH2 0x549 DUP2 PUSH2 0x395 JUMP JUMPDEST DUP3 MSTORE POP POP JUMP JUMPDEST PUSH0 PUSH1 0x20 DUP3 ADD SWAP1 POP PUSH2 0x562 PUSH0 DUP4 ADD DUP5 PUSH2 0x540 JUMP JUMPDEST SWAP3 SWAP2 POP POP JUMP JUMPDEST PUSH32 0x4174206C756E6368210000000000000000000000000000000000000000000000 PUSH0 DUP3 ADD MSTORE POP JUMP JUMPDEST PUSH0 PUSH2 0x59C PUSH1 0x9 DUP4 PUSH2 0x3FD JUMP JUMPDEST SWAP2 POP PUSH2 0x5A7 DUP3 PUSH2 0x568 JUMP JUMPDEST PUSH1 0x20 DUP3 ADD SWAP1 POP SWAP2 SWAP1 POP JUMP JUMPDEST PUSH0 PUSH1 0x20 DUP3 ADD SWAP1 POP DUP2 DUP2 SUB PUSH0 DUP4 ADD MSTORE PUSH2 0x5C9 DUP2 PUSH2 0x590 JUMP JUMPDEST SWAP1 POP SWAP2 SWAP1 POP JUMP INVALID LOG2 PUSH5 0x6970667358 0x22 SLT KECCAK256 0xBA JUMPDEST 0xAC LT SWAPN 0x79 0xCE BALANCE 0x24 MCOPY 0x1F MSIZE PREVRANDAO SWAP14 PUSH2 0x602B EXTCALL 0xC5 MCOPY SWAP2 0xA6 PC 0xDE SLT 0x4C PUSH9 0x20BDC7C06064736F6C PUSH4 0x4300081E STOP CALLER "
				},
				"gasEstimates": {
					"creation": {
						"codeDepositCost": "308400",
						"executionCost": "347",
						"totalCost": "308747"
					},
					"external": {
						"doNotdisturb(uint256)": "infinite",
						"fizzbuzz(uint256)": "infinite"
					}
				},
				"methodIdentifiers": {
					"doNotdisturb(uint256)": "65cae827",
					"fizzbuzz(uint256)": "06c3c519"
				}
			},
			"storageLayout": {
				"storage": [],
				"types": null
			},
			"userdoc": {
				"kind": "user",
				"methods": {},
				"version": 1
			}
		}
	}
}